:100000000C94AF010C94721C0C94CC010C94CC0198
:100010000C94CC010C94CC010C94CC010C94CC012C
:100020000C94CC010C94CC010C9498210C946C226F
:100030000C94F11A0C94CC010C94CC010C94CC01CE
:100040000C94CC010C94CC010C94CC010C94CC01FC
:100050000C94CC010C94941B0C94CC010C94CC010A
:100060000C94CC010C94CC010C94CC010C94CC01DC
:100070000C94CC010C94CC010C94CC010C94CC01CC
:100080000C94CC010C94CC010C94CC010C94CC01BC
:100090000C94CC010C94CC010C94CC010C94CC01AC
:1000A0000C94CC010C94CC010C94CC0129001400CC
:1000B0001A000800150017002B00040016000700A6
:1000C00009000A00E0001D001B00060019000500E1
:1000D000000000002F00300021522C000000000022
:1000E000460035002A002B001C0018000C001200EE
:1000F00033002D000B000D000E000F001300340024
:10010000110010003600370038003100280022525C
:100110002E022E000000000000004C00E300E20070
:1001200000000000AB00AA00AD00AE00A900310243
:10013000AC0059005A005B005C005D0035021E02F5
:100140001F02200221022202000000000000000025
:1001500000002C0000000000000000002A002B001E
:10016000230224022502260227022E025E005F00DF
:100170006000610062003102310050005200510005
:100180004F002D02280000000000000000000000C9
:1001900000004C0000000000000000003A003B009E
:1001A0003C003D003E003F0000002F0230022E02C6
:1001B0002E00000000000000000000000000000011
:1001C000000000000000000000002C000000000003
:1001D000000000002A002B004000410042004300C4
:1001E000440045000000460049004A004D00000060
:1001F00000000000000000000000000028000000D7
:10020000000000000000000000004C0000000000A2
:1002100000000000280344006100630074007900BE
:100220006C0020004D0061006E00750066006F00DC
:1002300072006D00200034007800360000000E03CC
:100240007400730068006F00720074000000040303
:10025000090409023B00020100A0FA0904000001A0
:100260000301010009211101000122440007058159
:100270000308000109040100010300000009211125
:10028000010001227B00070582032000011201000A
:1002900002000000084D443634010001020001054F
:1002A000010902A10185020901A10005091901291D
:1002B000081500250195087501810205010930091D
:1002C000311581257F95027508810609381581252C
:1002D0007F950175088106050C0A38021581257F76
:1002E000950175088106C0C005010980A10185033B
:1002F00019012AB700150126B70095017510810074
:10030000C0050C0901A101850419012AA0021501EB
:1003100026A002950175108100C005010906A10102
:10032000050719E029E715002501950875018102E7
:100330009501750881010507190029FF150026FFA1
:100340000095067508810005081901290515002585
:1003500001950575019102950175039101C0112464
:100360001FBECFEFDAE0DEBFCDBF11E0A0E0B1E00D
:10037000E6E6FAE402C005900D92AC3AB107D9F76F
:1003800022E0ACEAB1E001C01D92AE3BB207E1F75A
:100390000E94D2130C94F2240C9400008330B8F421
:1003A0006A30A8F4463098F450E096E0699F400D1A
:1003B000511D1124FA019CE3899FE00DF11D1124C8
:1003C000EE0FFF1FE455FF4F85919491089581E052
:1003D00090E008950E94CE01089581E008950E9462
:1003E000ED01089581E008950E94ED0108950E94B5
:1003F000F401089508950E94FA010895A6E0B0E07E
:10040000E4E0F2E00C944E2449835A839E833091B9
:10041000B30189819A8131111AC03E81332399F049
:10042000222389F00E940408182F682F89819A815D
:100430000E94E00769817A81812F0E94ED0E269645
:10044000E3E00C946A240E94F207182FF3CF0E9475
:10045000040869817A81F1CFFC01262F4081518106
:1004600062817381848195810E94FE010895CF93FA
:10047000DF93EC0161E00E942C02BE010E94EF01BB
:10048000DF91CF910895CF93DF93EC0160E00E945C
:100490002C02BE010E94FB01DF91CF91089581E003
:1004A00008950E944F020895CF93C82F0E94B50669
:1004B0008C2F0E9451022FEF84E39CE0215080405A
:1004C0009040E1F700C00000CF91089581E00E94C4
:1004D00054020E94B81B089580E00E9454020E94BA
:1004E000C91B08950F931F93CF93DF938C0161E095
:1004F0000E942C02EC01B8010E94F701811106C094
:1005000080E0DF91CF911F910F910895B801CE0146
:100510000E9451198823A1F3B801CE010E947B15D6
:10052000882371F3B801CE010E945115882341F34D
:10053000F8018581882361F0C330FCE7DF07E9F02B
:1005400058F4C115ECE7DE07A9F0C130DC47B9F07B
:10055000C8010E94F201D5CFCB358CE7D807A9F0AE
:10056000CC35ECE7DE0771F0CA35DC4789F70E942D
:100570002C0CEECF0E946602C3CF0E94340C0E9466
:100580006C02BECF0E94220CE3CF0E94300CE0CF61
:100590000E94CE1A0E94EF0208950E94F3020E9468
:1005A000D31A0895089581E008950895CF93DF93B5
:1005B000D82F0E94D302C82F882319F08D2F0E94B4
:1005C000D5028C2FDF91CF9108950895CF93C82F36
:1005D0000E94D2028C2F0E94D602CF91089580E013
:1005E0000E94E60208950E949A190E94E602089568
:1005F000CF930E949A19C82F8091AE018C1779F081
:10060000C093AE010E945D1B6093AF017093B00177
:100610008093B1019093B2018C2F0E94E602CF919A
:100620000895ADE0B0E0E7E1F3E00C944F24488793
:1006300059876A877B878C879D8791110E94620BFF
:100640001F8286E0FE013896DE01119601900D9220
:100650008A95E1F78D8181110DC029813A814B8105
:100660005C816D817E818F810E94AC0A2D96E2E0D3
:100670000C946B24CE0101960E9437028111EDCFBC
:10068000F5CFFC012481213021F4808191810E94E9
:1006900036080895662329F00E94DC160E94C117CF
:1006A00008950E944817FACFCF93C82F8823C9F026
:1006B0008238C9F40E94AE1981FD13C089E30E94FB
:1006C000641A0E94D10B2FEF87EE93E021508040F7
:1006D0009040E1F700C0000089E30E946C1A0E947C
:1006E000D10BCF9108958338A1F40E94AE1980FDFB
:1006F000F8CF83E50E94641A0E94D10B2FEF81EEA0
:1007000094E0215080409040E1F700C0000083E574
:10071000E4CF8438A1F40E94AE1982FDE2CF87E4D1
:100720000E94641A0E94D10B2FEF81EE94E02150B9
:1007300080409040E1F700C0000087E4CECF8CEF0E
:100740008C0F813A98F48C2F0E947D148111C9CFAF
:100750008C2F0E94291A882329F08C2F0E946C1A52
:100760000E94D10B8C2F0E94641AB9CF80E28C0FAB
:10077000883048F4C77081E001C0880FCA95EAF755
:100780000E94450BACCFEBE5EC0FE33040F4F0E01A
:10079000EE59FE4F808190E00E94CA19A2CFE8E591
:1007A000EC0FEB3150F4F0E0EE0FFF1FE45DFE4F75
:1007B000808191810E94EF1994CF83E38C0F833164
:1007C00008F08FCF61E08C2F0E944A038ACF8823E4
:1007D00009F456C0823879F40E94AE1981FF50C0E6
:1007E00089E30E94641A0E94D10B89E30E946C1A6B
:1007F0000E94D10B0895833859F40E94AE1980FFEE
:100800003FC083E50E94641A0E94D10B83E5EECFBE
:10081000843859F40E94AE1982FF32C087E40E94E6
:10082000641A0E94D10B87E4E1CF9CEF980F913AB4
:10083000E8F290E2980F983050F4877091E001C090
:10084000990F8A95EAF7892F0E944B0BD1CF9BE530
:10085000980F933028F490E080E00E94CA19089520
:1008600098E5980F9B3128F490E080E00E94EF1902
:10087000089593E3980F933118F460E00E944A03BF
:1008800008951F93CF93DF93182FEB010E94540319
:10089000209739F4812F0E94E703DF91CF911F91B8
:1008A00008958FE99FE00197F1F700C000002197BC
:1008B000EFCF70E060E0893311F460E570E00E94F2
:1008C00041040895882321F00E94450B0E94D10B1A
:1008D0000895882321F00E944B0B0E94D10B0895AC
:1008E000B0E0A0E0E6E7F4E00C9448246C01D62FD9
:1008F000C72FFC011581068102950F700E943B0BEA
:10090000E82E8823F9F0E12E1123E1F08C2F807F6F
:10091000803461F080E28D0F883008F18C2F807E6A
:10092000803221F4D230D8F00023C9F080919202B5
:1009300082FF15C082E00E94F60B0E943B0B91E003
:10094000E82EE926BC2EB2949FE0B922FBE0FB150D
:10095000B8F1EB2DF0E0EC50FB4D0C943924E12C78
:10096000F1CF0C2F0F70C07F11F00295007F112383
:1009700099F0002359F080E28D0F883010F0D111EA
:1009800007C0802F0E94450B0E94D10B8D2F5AC0AB
:10099000802F0E94550BF8CF8D2F0E94E703002374
:1009A00079F080E28D0F883010F0D11104C0802FD3
:1009B0000E944B0B03C0802F0E945B0B0E94D10B47
:1009C000EB2DE850FF0B349720F40E949A190E94F7
:1009D000E602EE2089F00E94370B80FD0DC0F60183
:1009E00015820E94310B0E943E07C6010E947C06C0
:1009F0000E94310B0E944E07CDB7DEB7E9E00C94A0
:100A000064242C2F2F70F22EC07FC03219F0F29484
:100A100080EFF822DD2341F0D130D1F1112309F428
:100A200044C00023F1F0B2CF8091920282FD15C044
:100A3000112359F0FF2029F08F2D0E94450B0E94B1
:100A4000D10B80E00E945403BBCF80E00E94E703FB
:100A5000FF2009F4B5CF8F2DABCF112369F0011121
:100A600004C08F2D0E946204ABCF013009F0A8CFE3
:100A70008F2D0E94790BA4CF0111A2CF8F2D0E9440
:100A800069048F2D0E94850B8F2D0E94690B98CFD2
:100A9000112321F0063008F093CFE3CF053008F0A2
:100AA0008FCF8F2D0E9469048BCF0023D1F3D933D0
:100AB00049F43FEF87EE93E0315080409040E1F7FA
:100AC00000C000008D2F0E94E7037ACF8C2F8695FF
:100AD0008695837069F0813009F072CF8D2F9C2F3D
:100AE0009370111102C080E090E00E94EF1968CF6E
:100AF0008D2F9C2F9370111102C080E090E00E9416
:100B0000CA195ECF612F8D2F0E944A0359CF8C2FB7
:100B10008370A1F5111154CF4D2F42954695477022
:100B2000440F440F2D2F2F7030E0042E02C0220FEF
:100B3000331F0A94E2F790E080E0D4FF09C08FE011
:100B400090E002C0880F991F4A95E2F78095909532
:100B5000C695C695C370822B932BC23049F058F4CA
:100B6000C13019F00E940E072BCF0E94050728CF35
:100B70000E94170725CF0E94020722CF86951123D6
:100B800011F08C2F8170882309F41ACF4D2F4295D4
:100B900046954770440F440F2D2F2F7030E0042EE0
:100BA00002C0220F331F0A94E2F790E080E0D4FFE6
:100BB00009C08FE090E002C0880F991F4A95E2F7C4
:100BC00080959095C695C695C370822B932BC230A5
:100BD00049F058F4C13019F00E947907F1CE0E9413
:100BE0007007EECE0E948207EBCE0E942607E8CE69
:100BF000CF70112329F08C2F0E943E078D2F32CF0A
:100C00008D2F0E9469048C2F0E944E07D9CED23FAF
:100C100041F160F4D03FB9F0D13F81F0112309F4E4
:100C200043C00111B3CE8C2F8F711FC0D33F01F190
:100C3000D43FA1F78091920282FD24C08C2F8F7146
:100C4000112311F312C0112341F0053008F0B8CE82
:100C50008C2F8F710E946007B3CE063008F0B0CEA3
:100C6000F7CF8C2F8F711111CFCF0E943E07A8CEE6
:100C7000112329F08C2F8F710E943207A1CE0E9480
:100C80002D079ECE112331F063E08C2F8F710E94CF
:100C9000D80B96CE81E00E94F60B023008F490CE7D
:100CA00082E00E94F60B8CCE002359F0D93309F074
:100CB00009CFEFEFF7EE23E0E150F0402040E1F7FD
:100CC000FFCE8C2F8F71A0CF0F931F93CF93DF9305
:100CD000EC01688179818D810E9441088C010E941C
:100CE0008B070E940107B801CE010E947004DF91BA
:100CF000CF911F910F910895CF93DF93EC018C81D9
:100D0000882399F0CE010E947202811111C00E94C5
:100D10003B0B882351F08D81882339F0809192021A
:100D200082FF03C082E00E94F60BDF91CF9108950D
:100D3000CE010E946406CE010E944302F6CF90E0ED
:100D400080E00E94CA1990E080E00E94EF190E94A2
:100D5000620B0E94D10B0E94DD170E94C1170895FB
:100D60000E94741A0E949F0608950E94520B0E94CE
:100D7000B006089592959F70963091F058F4925F66
:100D80009F70923058F4803F19F030F4883E30F470
:100D900081E008959A5FF4CF843FD1F380E0089515
:100DA000883EB0F3813FD1F7F3CFFC0124812223A9
:100DB00039F0808191810E9436080E94BA06089518
:100DC00080E00895A6E0B0E0E8EEF6E00C944F2451
:100DD0002696E2E00C946B24A7E0B0E0E2EFF6E0A8
:100DE0000C944F242796E2E00C946B2408950E9403
:100DF000F60608950E94F7069093D7018093D601D6
:100E0000089508950E94FA0608952091D601309120
:100E1000D701822B932B0E94FA0608952091D601C8
:100E20003091D701822393230E94FA0608952091DE
:100E3000D6013091D701822793270E94FA060895A0
:100E40000E94F60608950E94200708950E94230735
:100E50009093D5018093D401089590E080E00E94A2
:100E60002607089521E030E0A90102C0440F551F74
:100E70008A95E2F7CA010E942607089521E030E032
:100E800002C0220F331F8A95E2F78091D40190911E
:100E9000D501822B932B0E942607089521E030E094
:100EA00002C0220F331F8A95E2F72095309580917A
:100EB000D4019091D501822393230E94260708959F
:100EC00021E030E002C0220F331F8A95E2F78091C3
:100ED000D4019091D501822793270E942607089577
:100EE0002091D4013091D501822B932B0E942607AB
:100EF00008952091D4013091D501822393230E943B
:100F0000260708952091D4013091D5018227932797
:100F10000E94260708950895262F277091E001C0AA
:100F2000990F2A95EAF723E0769567952A95E1F7D8
:100F3000660F771F660F771FFA01E60FF71F50E065
:100F400040E0682F70E08191DF0111979B01042E32
:100F500002C0369527950A94E2F72170219528273B
:100F6000292328272C934F5F5F4F4430510559F7B1
:100F70000895A82FA77023E0969587952A95E1F705
:100F8000880F991F880F991FFB01E80FF91F50E088
:100F900040E080E0219130E00A2E02C0369527958E
:100FA0000A94E2F721703327042E01C0220F0A941D
:100FB000EAF7822B4F5F5F4F4430510559F7089590
:100FC000262F9A3070F4863060F4682F70E086E047
:100FD000989F600D711D112444EB51E0822F0E94F7
:100FE0008C070895292F9A3068F4863058F490E0E1
:100FF00064EB71E036E0239F800D911D11240E9467
:10100000B907089580E00895B0E0A0E0EAE0F8E0D4
:101010000C9448247C010091D4011091D501809159
:10102000D6019091D701082B192BCFE0D0E0CC242A
:10103000C394D12CBC2EC6010C2E02C0880F991F60
:101040000A94E2F780239123892B49F4219790F7A2
:10105000B12C8B2DCDB7DEB7E9E00C946424B70139
:101060008C2F0E94F90E019789F3F3CFCF93DF9372
:10107000EC010E940408BE010E94F90EDF91CF919D
:1010800008951F93CF93DF93EB019091B3019923C0
:1010900039F0CB010E943608DF91CF911F9108955E
:1010A000882369F0CB010E940408182F682FCE0115
:1010B0000E94E007BE01812F0E94F90EEDCFCB0107
:1010C0000E94F207182FF6CF1F93CF93DF93C091A2
:1010D000D80117E08091D9018C1304C0DF91CF9122
:1010E0001F910895D0E01C9FF0011D9FF00D112469
:1010F000E652FE4F208131814281538164817581A6
:1011000086810E94EC062196C770E4CF20911202DE
:101110003091130240911402509115026091160211
:1011200070911702809118020E94EC060895CF93E7
:10113000DF9380911802807F09F04DC080911702E3
:10114000882309F448C0E091D8015091D901C09199
:101150001302D0911202609114027091150247E0BF
:101160005E17C9F18E2F90E0E49FF0011124E65242
:10117000FE4F2481222391F1489FF001499FF00DF9
:101180001124DF01A652BE4F11962C9111972C13FA
:1011900025C02C912D1322C015962C911597211145
:1011A0001DC012962D913C91261B370B283C310512
:1011B000A8F4809118028F70806180931802E05229
:1011C000FE4F80818F708061808382E192E00E9477
:1011D0007C060E946408DF91CF910895FC0131964E
:1011E000E770BECF482F2091D8019091D90157E0E8
:1011F000291302C080E0089530E0529FF001539F10
:10120000F00D1124E652FE4F8181681306C08081E3
:10121000481303C085818111EECF2F5F3F4F2770A8
:10122000E7CFA4E1B0E0E7E1F9E00C9445248C01BC
:1012300086E0F801DE011F9601900D928A95E1F794
:10124000D80114968C9114971596EC90159792E10D
:10125000A92E92E0B92E9091160291111FC08823F9
:10126000D1F0EE20A9F0C8010E94D506F82E8823FF
:1012700079F087E0F801D50101900D928A95E1F7A8
:10128000C5010E9441030E9497080E9486083DC044
:10129000C8010E947C06FF24F39437C0F801C08087
:1012A000D18082809380F0901702209114023091B7
:1012B0001502A401421B530BFF2009F4F6C0483C61
:1012C000510508F0A5C0882301F190911302809187
:1012D0001802282F207F09F067C09D111BC0909134
:1012E0001202C91217C0E11059C08F70806180933B
:1012F00018020E94860882E192E00E947C0680919A
:101300001802D80116968C93F12C8F2D6496ECE080
:101310000C946124E11042C06D2D8C2D0E94F208C6
:10132000E82E882371F082E192E00E947C0687E03B
:10133000E2E1F2E0DF011D928A95E9F70E9486085A
:10134000E3CFCF86D88A8F8598890E943608292FC7
:1013500022952F70243058F49F70223088F0992302
:1013600099F0F8019681907F79F4FE2CCECF2A5F18
:101370002F70223068F0C8010E947C06EF2CF5CF58
:10138000992311F0882389F3805E883070F3F3CFBE
:10139000803F58F3815F833070F7E7CF8091180268
:1013A000816080931802B0CF9D1107C09091120206
:1013B000C91203C0EE2009F49CC0C8010E94D506E2
:1013C000882309F465CFEE2009F462CF80911802DA
:1013D000803288F0209112023091130239872887D9
:1013E0009B868A86909116029C871D868E87CE01E9
:1013F00008960E947C0687E0F801A2E1B2E0019025
:101400000D928A95E1F70E9497080E94860843CFC3
:1014100090911802292F207F91F4682D9A8A898A49
:10142000A6017A899E2D0E94E20682E192E00E9446
:101430007C0687E0F50111928A95E9F77FCF882332
:1014400009F463CF809113028D1111C080911202B3
:10145000C8120DC0E1100BC016969C93C8010E94E3
:101460007C0687E0F50111928A95E9F74ECFC80115
:101470000E94D506882309F40BCFEE2009F408CF8B
:1014800080911802803208F4B6CF20911202309178
:1014900013023A8329839C828B82909116029D834A
:1014A0001E828F83CE010196A4CF483C510508F0DF
:1014B00045C0882309F4EFCEFE2CEE2009F4E8CED7
:1014C000809113028D112CC080911202C81228C085
:1014D0008091180280FD1BC0982F907FC1F0169656
:1014E0008C931697903F39F0982F907F905F8F7074
:1014F000892B16968C93C8010E947C0687E0F80120
:10150000A2E1B2E001900D928A95E1F7BECE87E0AC
:10151000F801A2E1B2E001900D928A95E1F7F5CED3
:10152000C8010E94D506811166CF809118028160A2
:1015300080931802C8010E947C06E7CE682D9A8A23
:10154000898AA6017A899E2D0E94E20687E0F5012C
:1015500011928A95E9F799CEAEE0B0E0E2EBFAE0BD
:101560000C944E24288739874A875B876C877D8750
:101570008E87CE0108960E9411098823B1F06C85F0
:10158000662341F0288539854A855B857D858E8572
:101590000E94EC0617E08091D8019091D90189133F
:1015A0003DC02E96E3E00C946A2487E0FE01389655
:1015B000DE01119601900D928A95E1F78C858823C2
:1015C00049F32091D90130E0C9010196877099272C
:1015D0004091D8014817190699F097E0929FD001E1
:1015E000939FB00D1124A652BE4FFE01319601907B
:1015F0000D929A95E1F78093D9010E946408CACFB1
:101600000E94B5061092D9011092D80187E0E2E15C
:10161000F2E0DF011D928A95E9F7BCCF819FC001FE
:10162000112486529E4F0E941109882309F4B9CFD4
:10163000E091D8011E9FF0011124E652FE4F208157
:101640003181428153816481758186810E94EC06DB
:101650008091D80190E00196877099278093D801F6
:101660009ACF8091210286958695869508958091DE
:1016700021028770089590912102977081E009F40A
:1016800080E0089580912D02089590912D02892B7C
:1016900080932D020895809590912D029823909328
:1016A0002D02089510922D02089590912C02892BFD
:1016B00080932C020895809590912C02982390930A
:1016C0002C02089510922C02089508950E94650B33
:1016D000089590912202292F282331F080958923A3
:1016E000809322020E94660B089508950E94750B54
:1016F000089590912302292F2823281729F0982B49
:10170000909323020E94760B089590912302292F33
:10171000282331F080958923809323020E94760B41
:10172000089580912302882329F01092230280E0FB
:101730000E94760B08950F931F93CF93DF93009130
:10174000000110910101C0912D0280912C02C82B43
:1017500080912302882331F0C82B0E94141A811132
:101760000E94910BF801C083C0910001D09101014A
:1017700048E050E069E172E0CE010E948A24892BA2
:1017800059F088E0FE01A9E1B2E001900D928A953E
:10179000E1F7CE010E94B119DF91CF911F910F9116
:1017A00008950E949B0B089508950E94D40B0895FC
:1017B0009091920292FF11C098E0899F90011124AC
:1017C000622B609321020E943E0780912102869540
:1017D000869586950E94D50B08950E943E07089530
:1017E0001092210280E00E94D50B08959091210271
:1017F0008095892380932102282F277069F4891707
:1018000059F09091920292FF07C086958695869531
:101810000E944E070E94F00B08959091920292FB55
:10182000222720F9281769F080FB92F99093920201
:1018300080919102909192020E94550C82E00E9448
:10184000F60B08958091920282FB882780F991E03F
:1018500089270E940D0C089581E00E940D0C0895C7
:1018600080E00E940D0C08956FEF7FEF90E080E024
:101870000E94DC24089590E080E00E94A82421E0EA
:10188000853E9E4F09F020E0822F089582E090E08F
:101890000E94A024089583E090E00E94A02408956F
:1018A00084E090E00E94A8240895BC0184E090E0C8
:1018B0000E94DC240895AB01BC018FE090E00E94FF
:1018C000D0240895AB01BC0183E190E00E94D024B4
:1018D000089560E070E0CB010E94620C089560E022
:1018E00070E0CB010E945B0C0E94690C0895A8E097
:1018F000B0E0EDE7FCE00C944F2465EE7EEF90E065
:1019000080E00E94DC2460E082E090E00E94BE243F
:1019100081E090E09093D7018093D60161E083E06D
:1019200090E00E94BE2460E074E184E090E00E94B8
:10193000DC2460E086E090E00E94BE2460E087E066
:1019400090E00E94BE2440E050E0BA0188E090E0C0
:101950000E94D02460E083E290E00E94BE2460E018
:101960008CE090E00E94BE2460E08DE090E00E9458
:10197000BE2419821A821B821C821D821E821F8233
:10198000188648E050E067E170E0CE0101960E94C1
:10199000AE2440E050E0BA018FE190E00E94D024F4
:1019A0000E946F0C2896E2E00C946B240E94770C46
:1019B0000895682F8EE090E00E94BE240895A6E06E
:1019C000B0E0E5EEFCE00C944D240E94511B8C012C
:1019D00080912E0290912F028017910781F0198239
:1019E0001A820E94511B682F49815A81792F80E009
:1019F00090E00E94110310932F0200932E0226966E
:101A0000E4E00C9469240E94151060933E027093E8
:101A10003F02809340029093410260933A02709398
:101A20003B0280933C0290933D02089508950895EF
:101A30000E94160D089508950E941B0D089581E0DF
:101A400008958FE290E10E94E7130E94170D0E9413
:101A5000180D08950E94E6110895089508950E94B2
:101A60002D0D0E942E0D08950E943B0C811102C085
:101A70000E94D60C0E94460C809342020E94500C99
:101A800090939202809391020E944B0C90E00E94EE
:101A900002078091D4019091D5010E9423070895F7
:101AA0000E94481B0E94EF0F0E94EC110E943D1102
:101AB0000E94340D0E94E5020E9439150E94FE1119
:101AC0000E941C0D0895A6E0B0E0E9E6FDE00C944C
:101AD00046240E941F0D81110CC00E94DF0C0E9441
:101AE000E6110E94FF170E94F8022696EBE00C9484
:101AF00062240E94601180E3A82E82E0B82E750156
:101B000010E0F70101917F01812F0E9439101F5FC2
:101B10001A3009F441C00817A1F38091420281FDF7
:101B20000E943F100E942A0DC82E10E09924939421
:101B3000812F0E943910082FF50181915F0108174C
:101B400029F1F12CEE24E394D02ED8268D2D8E2170
:101B5000A9F0CC2099F0F9821A830E94511B9C8332
:101B60008B839D8291E0802F8E2109F490E0498142
:101B70005A816B817C818D810E941103F394EE0C5C
:101B8000F6E0FF12E3CFF501319700831F5F1A30B3
:101B900079F60E94030DA3CF0813BFCF9ECF1F93EA
:101BA000CF93DF930E94FE0EEC01C11580E5D807AC
:101BB000F0F5C11580E4D80708F09CC0C03ED105FF
:101BC00020F5CD3CD10508F082C0C83AD10578F4A3
:101BD000C53AD10508F073C0C130D10519F120977D
:101BE00009F1C430D105F0F4D0E0C0E01BC0C33C23
:101BF000D105D0F7C85AD0E0CC0FDD1FCB59DE4F4E
:101C00000990D881C02DD4640DC0C11580E2D807D9
:101C100008F0D1C0C11581E0D80708F05AC0C83E0D
:101C2000D10510F7CE01DF91CF911F910895C036F5
:101C300082E5D80718F5C03482E5D80708F06BC0F4
:101C4000C03282E5D80708F05FC0C11582E5D80729
:101C500008F497C02C2F2695269580E2289F9001A6
:101C600011248C2F8370C1E0D0E002C0CC0FDD1FA7
:101C70008A95E2F7C22BD32BDD68D4CFC03A82E538
:101C8000D80760F4C03882E5D80708F459C0CF718E
:101C9000D0E0DC2FCC27C46FD06AC4CFC03C82E533
:101CA000D80708F462C0C03E82E5D80708F09CCF90
:101CB000DC2FCC27CC27DF71C06FD06AB3CFC55AD9
:101CC000D0E0C556DE4FC881D0E0D064ABCFD06540
:101CD000A9CF8D2F0E94A00F182FCE0199270E9407
:101CE000FE0EC12FD0E0DC2FCC27CC27DF71C82B14
:101CF000D92B98CFCE0199270E94FE0ECC27DF70FA
:101D0000C82BD92BD06A8ECFCF71D0E0DC2FCC2757
:101D1000C16FD06A87CF2C2F26952695277080E239
:101D2000289F900111248C2F8370C1E0D0E002C065
:101D3000CC0FDD1F8A95E2F7C22BD32BDC6872CF64
:101D40002C2F26952695277080E2289F900111243C
:101D50008C2F8370C1E0D0E002C0CC0FDD1F8A95CC
:101D6000E2F7C22BD32BDA685DCF8C2F8F710E94E4
:101D7000A00FC82FD0E0DC2FCC27CC27DF71D0629A
:101D800051CF8C2F8F710E94A00F55E0D695C7952B
:101D90005A95E1F7CF70D0E0DC2FCC27282F30E028
:101DA00084FF05C044E0220F331F4A95E1F7C22BA0
:101DB000D32BD06937CF8D2F8F710E94A00F182F92
:101DC000CE0199270E94FE0EC12FD0E0DC2FCC2738
:101DD000CC27DF71C82BD92BD2CF462F7A3030F4E5
:101DE000663020F4672F0E94EA01089590E080E0B9
:101DF00008950E94ED0E0E94CF0D0895823891053E
:101E0000B9F1B0F48133910509F47DC048F4893209
:101E1000910509F46DC08A32910509F47BC00895DB
:101E20008533910509F45FC08933910509F108955F
:101E3000833E9105D9F138F4803E910529F1823E27
:101E4000910579F10895863E9105D9F1873E910576
:101E500009F43EC0843E910541F52091920221FF94
:101E600024C08091910284FD19C087EE90E008950E
:101E700020919102237009F05AC02091920223FF11
:101E800014C089E290E008952091910220FD38C0AD
:101E90003091920230FF09C024FF43C090E080E0FF
:101EA00008952091910222FDF7CF0895209191028B
:101EB00022FD3AC03091920230FD39C024FFF5CFA7
:101EC000EDCF2091910223FFF0CF24FDE7CFCDCFBE
:101ED0002091910223FD2EC03091920231FFEECF6E
:101EE00084EE90E008952091910225FFDECFC9CFC6
:101EF0002091910225FD21C02091920223FFD5CF90
:101F000089E390E0D2CF2091910226FFCECF8AE2E2
:101F100090E008952091910226FFC7CF81E390E0E1
:101F2000089583EE90E0089582EE90E0089580EEAB
:101F300090E0089586EE90E0089585E390E008959E
:101F40009091910292FF10C041E0282F247124301B
:101F500009F040E031E0282F2871283009F030E006
:101F6000431711F02CE0822793FF10C041E0282F87
:101F70002471243109F040E031E0282F2871283104
:101F800009F030E0431711F02CE0822730919202E3
:101F900030FF10C051E0282F2171213009F050E0AE
:101FA00041E0282F2871283009F040E0541711F043
:101FB00029E0822731FF10C041E0282F2171213113
:101FC00009F040E031E0282F2871283109F030E095
:101FD000431711F029E0822794FD877E089510921F
:101FE0009302109294021092950210929602089514
:101FF000CF92DF92EF92FF926B017C010E94E6117B
:1020000081110EC00E945D1BC61AD70AE80AF90AA0
:10201000C0929302D0929402E0929502F0929602BE
:10202000FF90EF90DF90CF9008950F931F930E9441
:10203000E611882329F00E945D1B1F910F910895DE
:102040000E945D1B009193021091940220919502D1
:1020500030919602600F711F821F931FEECF80E0B8
:10206000089508950E943110089508950E94351032
:102070000895E82FF0E0EE55FD4F80810895089512
:1020800080EA8A95F1F7089500C008950E944010F3
:10209000089508950E9449100895A5E0B0E0E3E591
:1020A000F0E10C944B240E94E611F82E6091AC02F2
:1020B000882309F440C085E0E82E8E010F5F1F4F92
:1020C000F8018E2D11928A95E9F7862F90E0B801DC
:1020D0008E559D4F0E940C128823B9F08091970273
:1020E00090E045E050E0B8018E559D4F0E948A2453
:1020F00021E020934302892B91F4F12C0E943610A9
:102100008F2D2596E6E00C94672480914302882366
:10211000A1F3F8011192EA94E9F710924302A09119
:102120009702B0E0AE55BD4F85E0F80101900D92E9
:102130008A95E1F7E3CF70E06E557D4F809197026D
:1021400090E08E559D4F0E9493120E944A10D8CF66
:10215000F894E82FE295EF70F0E031A1282F2F706E
:1021600081E090E001C0880F2A95EAF7982F9095BA
:10217000932391A392A1892B82A3789408950F931E
:102180001F93CF93DF93C4EAD1E089918F3F11F081
:102190000E94A81081E0C93AD807B9F7CEE9D1E08A
:1021A00004EA11E089918F3F11F00E94A8100C17EA
:1021B0001D07C1F7DF91CF911F910F910895B0E0F6
:1021C000A0E0E5EEF0E10C944924EC01D62E062FB8
:1021D00010E0C8018C559E4F7C01FC0180818F3F2F
:1021E00009F444C0F894E82FE295EF70F0E091A173
:1021F0008F7021E030E001C0220F8A95EAF7892F25
:10220000822B81A382A12095282322A378940E9467
:102210004410EEE9F1E031E0C12C21912F3F59F15A
:10222000A22FA295AF70B0E090968C9190E02F70A5
:1022300002C0959587952A95E2F780FD1CC0832FF3
:10224000C82A330F81E0E43AF80739F7F7018081B3
:102250008F3F11F00E94A81061E0C11001C060E042
:102260008D2D0E944610C00FD11FC882CDB7DEB79A
:10227000E8E00C94652480E0E3CF80910201809136
:10228000020195E0811190E09093AC0285E0891BFA
:10229000809397020E94BF108AE0E2EAF2E0DF0139
:1022A000982F1D929A95E9F7E8E9F2E0DF011D9277
:1022B0008A95E9F785E00E949E110E9432100895E8
:1022C000AAE0B0E0E6E6F1E10C944C248E010F5F49
:1022D0001F4F8AE0F80111928A95E9F7F12C6F2DD2
:1022E000C8010E94DF10F394F5E0FF12F8CF4AE036
:1022F00050E0B80188E992E00E948A2421E000972A
:1023000009F420E0892B41F08AE0F801A8E9B2E065
:1023100001900D928A95E1F76091AC0270E06E55E4
:102320007D4F45E088E992E00E949F11182F0E949E
:102330004D10812B2A96E5E00C9468240895B0E0B6
:10234000A0E0E5EAF1E10C9449246C017B01042F43
:10235000C22F222379F081E0809346020E94511B14
:10236000909345028093440280E0CDB7DEB7E8E069
:102370000C946524D0914602DD23B1F38091440290
:10238000909145020E94691B059770F310E0A80127
:10239000B601C7010E948A24892B31F0A801B60139
:1023A000C7010E949724CD2F109246028C2FDDCFBB
:1023B000CF930E941824C82F811102C00E941324B9
:1023C0008C2FCF91089580914A02089580914902FF
:1023D00008950E94E61108950E94D8118093490241
:1023E0000E94E91180934A020E94E3118093020146
:1023F0000E94E61181110E94421208950E94E61186
:10240000811102C00E944512089581E090914B0213
:102410009A3008F080E008950F931F93CF93DF93D5
:10242000EC018B0180914B028A30B8F4B801CE01E7
:102430000E949012C82F811122C080914B028F3FC1
:10244000B9F40E94511B90934802809347028C2F4D
:10245000DF91CF911F910F91089580914702909144
:1024600048020E94691B843F914000F7C0E0EFCF13
:102470008F5F80934B028A3020F7C1E0E8CF109243
:102480004B02E5CF0E942C1C08950E942F1C08953A
:10249000B0E0A0E0EEE4F2E10C944A247901C82F08
:1024A000880FDD0B41155105A9F0FE0193E0EE0FF9
:1024B000FF1F9A95E1F7ED5FFE4F81819281845B6A
:1024C0009D4F208130E04217530708F49A01A9017B
:1024D0000E949724CE010E94181DD82E8823D1F087
:1024E00001151105B9F083E0CC0FDD1F8A95E1F7E6
:1024F000FE01ED5FFE4F438150E00417150708F41D
:10250000A801CD5FDE4F6C817D81645B7D4FC7018B
:102510000E9497248D2DCDB7DEB7E7E00C9466249A
:102520000E94821308950E9499130895A4E0B0E0D8
:10253000ECE9F2E10C944D24609163027091640225
:1025400080916502909166020E94781B11E06436CA
:1025500071058105910518F10E9415106E5F7F4F7E
:102560008F4F9F4F69837A838B839C8310E000E0B9
:1025700030E020E044E050E0BE016F5F7F4F82E03A
:102580000E944812182F882351F00E945D1B60930F
:102590006302709364028093650290936602812FB8
:1025A0002496E4E00C946924B0E0A0E0EAEDF2E1C6
:1025B0000C9447247C015B016A010E94051201E032
:1025C00010E0882311F00AE010E0C1E0D0E0B5018E
:1025D000C701F6010995811104C021960C171D074A
:1025E0002CF4CDB7DEB7EAE00C946324CC9F9001C5
:1025F000CD9F300D300D112490E080E045E34A95E9
:10260000F1F70000019682179307C1F7E0CFA6E02B
:10261000B0E0EDE0F3E10C9447247B01C090A90108
:10262000D090AA0101E010E09E012A5F3F4F50E0E8
:1026300040E070E060E080E00E944812182F88239C
:1026400009F448C056018FEFA81AB80A60915F02DA
:102650007091600280916102909162020E94781BE9
:10266000643671058105910568F105E010E09E0171
:102670002F5F3F4F50E040E070E060E081E00E945B
:102680004812D82E65E070E0C5010E943A1511E0AD
:102690009E81981310E01D2141F10E945D1B609303
:1026A0005F0270936002809361029093620285E002
:1026B000FE013196AAE5B2E001900D928A95E1F70C
:1026C00011E013C065E070E0C5010E943A159E81DB
:1026D0008913CBCF85E0F6013196DE01119601908A
:1026E0000D928A95E1F71111E2CF85E0EAE5F2E07B
:1026F000D70101900D928A95E1F7812F2696EAE0A5
:102700000C9463240F931F93CF93DF93EC018B0101
:1027100047E053E10E94D412882331F046E952E1A8
:10272000B801CE010E94D412DF91CF911F910F9179
:1027300008950F931F93CF93DF93C091A901D09178
:10274000AA01CE01019625E0FB01DC0101900D926A
:102750002A95E1F765E070E00E943A1588836E8162
:102760007F818885998500915602109157022091AA
:10277000580230915902601771078207930751F090
:1027800060935602709357028093580290935902B7
:102790000E94F80FDF91CF911F910F9108950E9431
:1027A000630D08950E94EA1A0E94CF1E0E94210D17
:1027B0000E94E91E0E94500D0E94F61E0E94FB1E00
:1027C0000E94CF130E94151F0E942F0DF7CF9093E8
:1027D000AD018093AC0108958B3109F465C040F5DB
:1027E0008B3071F078F4863009F447C020F48530DE
:1027F00059F180E00895873009F448C08830C9F75E
:1028000081E00895803109F45DC068F48E3089F765
:1028100090914202892F8B7F92FF846080934202C5
:1028200082FD4CC0EDCF863159F3893149F3E1CFB8
:102830008A3201F160F48732B1F020F48E31C8F2AF
:102840008D514CC08932A9F60E946602D9CF8334DB
:1028500040F48A3308F041C0853329F0883381F28F
:10286000C8CF833431F681E090E00E9402070E94D5
:10287000B506C6CF0E94D60CC3CF80914202807F9E
:102880008093420281E080936A020895909142020F
:10289000892F8E7F90FF81608093420280FDB0CFB0
:1028A000817F80934202ACCF90914202892F8D7F2D
:1028B00091FF82608093420281FFA2CF8091420209
:1028C0008160EFCF90914202892F877F93FF8860CC
:1028D0008093420283FDF2CF93CF895321E030E011
:1028E000A90102C0440F551F8A95E2F7CA01BDCF66
:1028F00080E008950E9478140895CF93C82F8091A6
:102900006A028130B9F0882331F08230A1F110924F
:102910006A0280E00DC00E94420B8232D1F78C2FF8
:102920000E94781481111BC08C2F0E94EC138170BF
:10293000CF9108950E94420B823289F38C2F0E941E
:102940007A1481110AC0C43199F060F4CB3029F0B7
:10295000C03169F782E080936A0281E0E8CF81E0CC
:1029600090E0E5CFC93221F0C833B9F380E0DFCF82
:1029700010926A02FBCFC93209F43FC0E8F4C431B7
:10298000E1F128F4C73009F45BC081E0D1CF82EED9
:102990008C0F8A30D0F7CD51C0936902C33009F44F
:1029A00046C0B0F5C13009F43FC080E291E0C230CA
:1029B000B1F110926902E9CFC03509F452C0B8F400
:1029C0008AE0CF3411F7E0916702F0916802309706
:1029D000E1F22081082E000C990B820F911D8F3F90
:1029E000910509F00CF441C08FEF8083CECFC13543
:1029F000D1F181E0C23539F39BCF80916902882300
:102A000021F2109269021092680210926702BDCF03
:102A1000C53099F078F08BE191E0C63051F6909393
:102A2000680280936702B1CF8DE692E0F8CF8FE124
:102A300091E0F5CF8EE191E0F2CF8CE191E0EFCF24
:102A400010926D0284E180932001C0931F018CE3FA
:102A500080931E0188E080931C0188E280931B0113
:102A600094CF86EFB0CF8FEFAECF97FFBECF10825F
:102A70008CCF0895FC01680F791F8FEF91E3E61763
:102A8000F70709F408952191822728E030E087FFB5
:102A900006C0880F892721503109C9F7F0CF880F68
:102AA000FACFCF93DF93EB0186319C4711F50E945B
:102AB000420B9D81992399F08A7A91E009F490E084
:102AC00090936B02811109C089E20E94641A0E94EE
:102AD000D10B80E0DF91CF91089585E3F6CF80910F
:102AE0006B02811104C089E20E946C1AF0CF85E369
:102AF000FBCF81E0EFCFCF93DF93EC01FB0185812A
:102B0000882309F4D2C09E0130572332310508F0E2
:102B1000B2C00E94500C9093920280939102FE01E9
:102B2000E150F047E232F10520F4E050FB4D0C9407
:102B300039248091910281608093910293C08091A9
:102B400092028860809392028DC08091910282608F
:102B5000F3CF809191028460EFCF809191028860E1
:102B6000EBCF809192028160EDCF809192028260E2
:102B7000E9CF809191028061DFCF809191028062E4
:102B8000DBCF809191028064D7CF0E94B5068091FF
:102B900091028068D1CF809191028C60CDCF8091DD
:102BA00092028360CFCF809191028E7FC5CF8091BA
:102BB0009202877FC7CF809191028D7FBDCF809198
:102BC00091028B7FB9CF80919102877FB5CF8091A1
:102BD00092028E7FB7CF809192028D7FB3CF80918A
:102BE00091028F7EA9CF809191028F7DA5CF809198
:102BF00091028F7BA1CF0E94B506809191028F77C1
:102C00009BCF80919102837F97CF809192028C7F9E
:102C100099CF8091910282FB992790F921E0922728
:102C200090FB82F990FB83F987CF80919202982FD5
:102C3000909591708E7F892B90FB81F983CF909135
:102C40009102892F8F7B96FF806476CF0E94B50614
:102C500090919102892F97FB87F980586DCF81E081
:102C60000E94D90C80919102909192020E94550C81
:102C70000E94B50680E0DF91CF91089580E0F0CF0B
:102C800090919102892F8F7E94FF806155CF909112
:102C90009102892F8E7F90FF81604ECF909192029A
:102CA000892F877F93FF88604DCF81E0E4CF282F65
:102CB00035EB2303C001112497FF04C0805891090C
:102CC000892F089580589F4FFBCF8091740280FF19
:102CD0000DC060911F0170E0660F771F60387105AD
:102CE00070F56115710569F1862F089581FF07C0A0
:102CF00060911F0184E0689FB0011124EFCF6091C3
:102D00001F0182FD0AC0809173028823A9F02091DF
:102D10001E0160911F01821710F088E0ECCF869FA2
:102D2000C001112433E0880F991F3A95E1F7622F13
:102D300070E00E942524D2CF68E070E0D5CF8FE705
:102D4000089581E008958091740280FF0CC0609125
:102D50001C0170E07595679575956795611571050E
:102D600049F1862F089581FF06C060911C0170E033
:102D700075956795F3CF60911C0182FD0BC0909112
:102D800072029923A1F060911B0180911C0196179A
:102D900038F0682F70E06038710500F38FE7089510
:102DA000899FC001112470E00E942524F4CF61E0C6
:102DB00070E0D7CF81E0089590917702209178025A
:102DC000922B20917A02922B20917902922B31F052
:102DD00098E09093730291E0909372028D3C31F4ED
:102DE0000E94651681958093780208958E3C19F4AF
:102DF0000E946516F8CF8F3C31F40E9465168195CC
:102E0000809377020895803D19F40E946516F8CFEB
:102E1000893D29F40E94A3168093790208958A3D82
:102E200021F40E94A3168195F7CF8B3D31F40E94C7
:102E3000A316819580937A0208958C3D19F40E941F
:102E4000A316F8CF9FE2980F983070F4815D990B2C
:102E500021E030E001C0220F8A95EAF780917602E6
:102E6000822B8093760208958D3D31F48091740217
:102E700081608093740208958E3D21F480917402E4
:102E80008260F7CF8F3DB9F7809174028460F1CFF3
:102E9000409177028D3C59F48091780287FF0DC0F4
:102EA0001092780241110BC01092730208C08E3C40
:102EB00081F48091780218169CF3442381F080916C
:102EC000790290917A02892B09F05AC0109272020D
:102ED00008958F3C49F447FFF0CF1092770280911C
:102EE00078028111ECCFE0CF803D19F41416ACF3D9
:102EF000E4CF90917902893D29F41916F4F61092E5
:102F00007902DBCF8A3D19F497FFD7CFF8CF9091A4
:102F10007A028B3D29F497FFD0CF10927A02CDCF61
:102F20008C3D19F41916CCF3C8CF9FE2980F983056
:102F300090F4815D990B21E030E0B90102C0660F89
:102F4000771F8A95E2F7CB018095909176028923CD
:102F500080937602B2CF8D3D31F4809174028E7FE2
:102F600080937402AACF8E3D21F4809174028D7FEC
:102F7000F7CF8F3D09F0A1CF809174028B7FF0CF06
:102F800008950E94511B9C019091770280917802D4
:102F9000982B21F030937102209370029091790266
:102FA00080917A02982B21F030936F0220936E0269
:102FB00085E792E00E94BC19089586E0E5E7F2E01B
:102FC000DF011D928A95E9F7109273021092720246
:102FD000109274020895FC01828181110EC08381D8
:102FE00081110BC08481811108C091E0858181111C
:102FF00001C090E0892F8170089581E0FCCFA6E0A8
:10300000B0E0E5E0F8E10C944E2486E0E5E7F2E07C
:10301000DE01119601900D928A95E1F710927702E8
:10302000109278021092790210927A028B819C8120
:10303000892B89F080917002909171020E94691B26
:10304000AC01909173029923C9F1809120018417FA
:10305000150608F440C08D819E81892B91F08091E6
:103060006E0290916F020E94691BAC0190917202F6
:10307000992309F46AC080911D018417150608F48C
:1030800072C0BE016F5F7F4F85E792E00E947F1A9A
:10309000811105C085E792E00E94EB1781110E9423
:1030A000C11786E0FE013196A5E7B2E001900D92CE
:1030B0008A95E1F72696E3E00C946A2420916D024C
:1030C0008AE0289F900111242417350720F69F5F7E
:1030D0009093730202C09F3FD1F71B81112359F0D7
:1030E0000E9465169FEF11160CF491E0899F802DC8
:1030F0001124809377021C81112359F00E946516D8
:103100009FEF11160CF491E0899F802D112480937C
:10311000780280917702882309F49DCF109178027C
:10312000112309F498CF0E945716882351F08093F9
:103130007702812F0E945716882329F08093780206
:103140008ACF81E0F4CF81E0F9CF20916C028AE050
:10315000289F900111242417350708F092CF9F5F14
:103160009093720202C09F3FD1F71D81112359F045
:103170000E94A3169FEF11160CF491E0899F802DF9
:103180001124809379021E81112359F00E94A31605
:103190009FEF11160CF491E0899F802D11248093EC
:1031A0007A0280917902882309F46BCF10917A0218
:1031B000112309F466CF0E945716882351F080939B
:1031C0007902812F0E945716882329F080937A0272
:1031D00058CF81E0F4CF81E0F9CF0F931F93CF93C5
:1031E000DF93C42FD22FFC0185818823C9F040933F
:1031F0007D020E94511B90937C0280937B0280E2AF
:103200008C0F883040F4C77081E001C0880FCA95E8
:10321000EAF70E946204DF91CF911F910F91089508
:1032200010917D02141332C080917B0290917C0238
:103230000E94691B883C910548F5C0E2CD0F1D171F
:10324000B9F080E2810F883040F4177081E001C04E
:10325000880F1A95EAF70E946904C83048F481E0A3
:103260009D2F977001C0880F9A95EAF70E9462041B
:10327000802F0E945904C83070F6D77081E001C0D9
:10328000880FDA95EAF70E946904C5CF80E28C0FB7
:10329000883008F6C77081E001C0880FCA95EAF748
:1032A000F2CF0F93DB0188519C4787309105A0F541
:1032B000FC01EE5DFA4D0C94392406E221EE41EE5C
:1032C0006AE17CE7CD010E94ED1880E00F9108953E
:1032D00007E225EE45EE6BE17CE7F4CF06E221EE56
:1032E00040EE68E17CE7EECF07E225EE44EE69E1CF
:1032F0007CE7E8CF06E221EE42EE6CE17CE7E2CF2C
:1033000007E225EE46EE6DE17CE7DCCF08E221E046
:1033100045EE6EE17CE7D6CF15968C91882319F0A7
:1033200010927D02D3CF81E0D1CF9093840280931D
:10333000830208950E94E611811103C080917E02EC
:103340000895E0918302F0918402309729F0019072
:10335000F081E02D0995089580E008950E949A1962
:103360000895E0918302F0918402309721F0028069
:10337000F381E02D09950895E0918302F091840294
:10338000309739F022E0DC012C930680F781E02DA4
:1033900009950895A3E0B0E0E0EDF9E10C944F2425
:1033A000209181023091820228173907A1F0909371
:1033B000820280938102E0918302F091840230972F
:1033C00051F023E029839B838A830084F185E02DDB
:1033D000CE01019609952396E2E00C946B24A3E0BC
:1033E000B0E0E5EFF9E10C944F2420917F02309199
:1033F000800228173907A1F09093800280937F0202
:10340000E0918302F0918402309751F024E0298307
:103410009B838A830084F185E02DCE010196099576
:103420002396E2E00C946B2440910001509101013D
:103430009A012E5F3F4F485F5F4F80E024173507AA
:1034400009F40895F90191919F019923B9F38F5FD0
:10345000F5CF882371F02091000130910101F9012D
:103460003296285F3F4F9191981729F0E217F307A2
:10347000D1F780E0089581E008959C01FC01329627
:103480009FEF80E04191461751F09F3F19F44111A1
:1034900001C0982F8F5F8630A9F79F3F09F40895E8
:1034A000290F311D97FD3A95F90162830895FC01BA
:1034B000329608962191261303C0DF0111971C92C2
:1034C000E817F907B9F70895682F809100019091E6
:1034D00001010E943D1A0895682F8091000190918A
:1034E00001010E94571A0895E0910001F091010135
:1034F000329686E0DF011D928A95E9F70895DC0196
:10350000FB0111969C9111978181981322C012960C
:103510008C911297882319F0928189131AC01396FF
:103520008C911397882319F09381891312C01596F3
:103530008C911597882319F0958189130AC01496E8
:103540009C91992321F081E02481291303C080E01C
:1035500001C081E08170089508950E94AC1A089519
:10356000811106C081E0809385020E94AD1A089502
:1035700082E0F9CF83E0809385020E94AD1A08951E
:103580000E94B01A089581E0809385020E94AD1ACE
:1035900008950E94C31A0895089508950E94CD1AAF
:1035A0000895089508950E94CC1A0895CF930E941B
:1035B000D11A0E9460110E94D21AC0E08C2F0E9482
:1035C0003910811105C0CF5FCA30C1F7CF9108957E
:1035D00081E0FCCF85B7806885BF85B7806885BFEF
:1035E00008951F921FB61F9211248F939F93AF933C
:1035F000BF9380918602811113C08091AD0290919A
:10360000AE02A091AF02B091B0024196A11DB11DD2
:103610008093AD029093AE02A093AF02B093B0023C
:10362000BF91AF919F918F911F901FBE1F901895D2
:103630008091B502843031F10E94C8021092860256
:1036400088E190E020E40FB6F894A895809360009C
:103650000FBE2093600083B7817F846083BF83B7F0
:10366000816083BF7894889583B78E7F83BF0FB6C0
:10367000F894A89580916000886180936000109212
:1036800060000FBE08950E94B5060E94CD02089505
:1036900082E084BD93E095BD9AEF97BD80936E0064
:1036A00008952FB7F8948091AD029091AE02A09149
:1036B000AF02B091B0022FBF08952FB7F894609178
:1036C000AD027091AE028091AF029091B0022FBF17
:1036D00008959C014FB7F8948091AD029091AE028D
:1036E000A091AF02B091B0024FBF821B930B08951F
:1036F000CF92DF92EF92FF922FB7F894C090AD0275
:10370000D090AE02E090AF02F090B0022FBFA701C0
:103710009601261B370B480B590BCA01B901FF90C4
:10372000EF90DF90CF90089578941F921FB61F926C
:1037300011248F939F93AF93BF938091AD0290918B
:10374000AE02A091AF02B091B0020196A11DB11DD1
:103750008093AD029093AE02A093AF02B093B002FB
:10376000BF91AF919F918F911F901FBE1F90189591
:1037700087E797E7909301088093000888E19AE033
:103780000FB6F894A895809360000FBE90936000E8
:10379000FFCF88E19AE00FB6F894A8958093600077
:1037A0000FBE90936000FFCF8EE1489B02C0815016
:1037B000E1F7489BFECF0895589880E28A95F1F78B
:1037C000589A0895FC013BE03A95F1F798E020E023
:1037D00080E031E040E14A95F1F7880F489B02C054
:1037E0008160232742E04A95F1F7000040E14A95C5
:1037F000F1F7915079F790E19A95F1F799B132E0AC
:103800003A95F1F7000040E14A95F1F7917092275F
:103810002081920F90830895A1E0B0E0E2E1FCE105
:103820000C944B2419828C017C01E60EF11C0E15C0
:103830001F0541F481E09981911180E02196E6E035
:103840000C9467240E94D41BCE0101960E94E21BB7
:10385000F80181938F01EBCF509A589A08955098B0
:10386000589AE89AE9E6F0E080818C7F8083089599
:103870006150770B91E001C0990F6A95EAF720E05B
:1038800031E0911108C0222391F0589A80E28A9584
:10389000F1F758980895492F482339F0589A23276B
:1038A00040E24A95F1F79695ECCF5898F9CF5898A1
:1038B000EDCFFF920F931F93CF93DF93EC018C0119
:1038C000060F111DC017D10729F4CDB7DEB7E5E00B
:1038D0000C946824F9900E94DC1B68E08F2D0E94F4
:1038E000381CF0CF1F920F920FB60F9211240F9336
:1038F0001F932F933F934F935F936F937F938F9378
:103900009F93AF93BF93EF93FF93CF93DF930F9268
:10391000CDB7DEB719820E94D41BCE0101960E945A
:10392000E21B082F069506950695282F22952570EF
:10393000902F9570290F922F937026952695920FB0
:10394000982797708981982B09F05CC0043008F0A3
:1039500059C080E18A95F1F7589A509A82E08A9589
:10396000F1F700C0589888E0089F80011124D80121
:10397000AD5FBE4F1696ED91FC9117973097A9F069
:103980006091A9017091AA0114962D913C9115970F
:10399000260F371F11968D919C911297680F791FF2
:1039A00013964C9113978C910995F801ED5FFE4F9A
:1039B0006381662351F02091A9013091AA0184818D
:1039C0009581820F931F0E94591C0E94DC1B80E18D
:1039D0008A95F1F758985098589A80E18A95F1F7AE
:1039E000F801ED5FFE4F6081662351F02091A9013F
:1039F0003091AA0181819281820F931F0E940C1C39
:103A00000E94D41B0F90DF91CF91FF91EF91BF9156
:103A1000AF919F918F917F916F915F914F913F9166
:103A20002F911F910F910F900FBE0F901F9018951F
:103A30000F931F93CF93DF93EC0104970CF04CC0CE
:103A4000F894509A589885E08A95F1F700009C2FD9
:103A5000969595708C2F8570980F892F8370969509
:103A6000969523E0CC0FDD1F2A95E1F7980F8E0184
:103A7000092B0E94DC1B00C068E0802F0E94381CCC
:103A800080E18A95F1F75098589A489B1EC087E0CC
:103A900090E048991CC0FE01ED5FFE4F63816623F4
:103AA000F9F02091A9013091AA0184819581820FBA
:103AB000931F0E940C1C811113C0509A589A78943D
:103AC000DF91CF911F910F91089500C0DECF019734
:103AD00029F4509A589A789480E0F2CF00C0D9CF58
:103AE0000E94D41B80E28A95F1F75898509A80E1A1
:103AF0008A95F1F7CD5FDE4F6881662351F0209102
:103B0000A9013091AA0189819A81820F931F0E9495
:103B1000591C0E94DC1B789481E0D2CF80918F02E7
:103B2000089508959B01BA019091B5029430E9F48B
:103B30008F708093E9009FEF8091E800915085FDA0
:103B400006C085ED8A95F1F700009111F5CF8091BF
:103B5000E80085FF0AC050E040E0C9010E948C1FC8
:103B60008091E8008E778093E800089543E050E06C
:103B7000BC0182E00E94921D089546E050E0BC0125
:103B800082E00E94921D0895CF93DF93EC0148E0FC
:103B900050E0BC0181E00E94921D88E0FE01A7E890
:103BA000B2E001900D928A95E1F7DF91CF910895EF
:103BB0008091B402811109C00E941C210E947921C8
:103BC0008091E20084608093E20008951092B40234
:103BD00008950E94C31A08956091B10281E06111B5
:103BE00001C080E00E94BA1A08959091B50281E068
:103BF000943009F080E06091B1020E94C01A0895EB
:103C000042E061EC81E00E94982042E261EC82E0B7
:103C10000E9498209091B50281E0943009F080E0F4
:103C20006091B1020E94B01A08958091B70283306A
:103C300009F461C030F48130D1F1823009F49EC0C2
:103C400008958A3009F48AC08B3009F46FC0893036
:103C500009F050C08091B602813209F04BC08091CA
:103C6000BA029091BB02029708F044C08091E8002C
:103C7000877F8093E8008091E80082FF37C09091B1
:103C8000F3008091F200029731F48091F1008130CD
:103C900011F0863021F48091F10080938F028091A1
:103CA000E8008B778093E8000E94CC2023C08091AD
:103CB000B602813AF9F48091E800877F8093E800AA
:103CC0008091BA029091BB02892B61F468E087E889
:103CD00092E070E00E94DB1F8091E8008B77809378
:103CE000E800089560E090E080E0F3CF8091B502B5
:103CF0008111C1CF08958091B602813AD9F78091A0
:103D0000BA029091BB02892BA9F78091E800877FC6
:103D10008093E8008091E80080FFFCCF80912B0128
:103D20008093F1008091E8008E77BCCF8091B6023D
:103D3000813201F78091BA029091BB02892BD1F6B2
:103D40008091E800877F8093E8000E94CC208091DA
:103D5000B80280932B010E94B50608958091B602A7
:103D6000813241F68091E800877F8093E8000E94CD
:103D7000CC208091B9028093900208958091B60280
:103D8000813A09F0B7CF8091E800877F8093E800FF
:103D90008091E80080FFFCCF80919002C1CF84B772
:103DA000877F84BF0FB6F894A895809160008861E2
:103DB00080936000109260000FBE80E890E00FB624
:103DC000F89480936100909361000FBE0E94C91A1D
:103DD00008950E941C210E947921E2EEF0E080818A
:103DE0008460808378940E94F823089581E291E0B2
:103DF0000E94951908958091B502853031F4809123
:103E0000B502853019F00E94431B08950E94181BCB
:103E10008091B302882399F30E94D61A882379F3FC
:103E20000E94761F0E94B506EACF08959A0140913C
:103E3000BC025091BD020E941E1F0895492F5527B4
:103E40004330510519F168F44130510509F444C07B
:103E50004230510509F445C090E080E050E040E078
:103E600025C04132510549F142325105A9F784E498
:103E700090E04AE153E061157105C1F08BE790E0F5
:103E80004FE952E06130710589F0E6CF9927813022
:103E9000910581F0009729F00297F1F6E4E1F2E054
:103EA00002C0EEE4F2E0849190E0AF01F9015183A9
:103EB00040830895EEE3F2E0F6CF89E090E044E637
:103EC00052E06115710591F389E090E04DE752E011
:103ED0006130710559F3C0CF82E190E04DE852E0C6
:103EE000E5CF8BE390E042E552E0E0CF80E189BD91
:103EF00082E189BD09B400FEFDCF8091D8008F7D9D
:103F00008093D8008091E00082608093E0008091EF
:103F1000E00081FDFCCF0895AF92BF92CF92DF9277
:103F2000FF920F931F93CF93DF936C01EB018A01F4
:103F30000E94EB20F82E811123C00115110539F0E4
:103F4000F80180819181C81BD90BC80ED91EB12CF4
:103F5000A12C2097A9F08091E80085FD22C08091D6
:103F6000E8008E778093E80001151105A1F0F801B3
:103F700080819181A80EB91EB182A08285E0F82EC1
:103F80008F2DDF91CF911F910F91FF90DF90CF90F8
:103F9000BF90AF9008950E94EB208823D1F2F82EB5
:103FA000EFCFF60181916F018093F1002197FFEF30
:103FB000AF1ABF0ACECFFC018091BC029091BD0226
:103FC00086179707A0F06115710529F49091E80014
:103FD0009E779093E80090E06115710551F491117E
:103FE00008C08091E80082FF34C080E00895BC01E1
:103FF000F2CF8091B5028823C1F18530C1F1809163
:10400000E80083FD30C08091E80082FDEACF809116
:10401000E80080FFE1CF8091F3002091F200382F7B
:104020006115710519F02830310558F091E02830FC
:10403000310509F090E02091E8002E772093E80008
:10404000CBCF81918093F100615071092F5F3F4F79
:10405000E7CF8091B502882341F0853041F080910F
:10406000E80083FFBECF81E0089582E0089583E0F9
:104070000895FC018091BC029091BD0286179707BC
:10408000A0F06115710529F48091E8008E77809386
:10409000E80090E06115710551F4911108C080911C
:1040A000E80082FF35C080E00895BC01F2CF809126
:1040B000B5028823C9F18530C9F18091E80083FDFC
:1040C00031C08091E80082FDEACF8091E80080FF56
:1040D000E1CF8091F3002091F200382F6115710536
:1040E00019F02830310558F091E02830310509F0F9
:1040F00090E08091E8008E778093E800CBCF8491A8
:104100008093F1003196615071092F5F3F4FE6CFE8
:104110008091B502882341F0853041F08091E8001C
:1041200083FFBDCF81E0089582E0089583E0089584
:10413000982F973028F08F708093E90081E00895E0
:104140009093E900242F762F50E0981731F070916A
:10415000EC002091ED005091F00021FD02C09F5F26
:10416000E8CF3091EB003E7F3093EB003091ED00D3
:104170003D7F3093ED003091EB0031603093EB00E8
:104180007093EC002093ED005093F0002091EE002E
:1041900027FDE5CF80E008958091B60287FF13C028
:1041A0008091E80082FF06C08091E8008B778093C1
:1041B000E80004C08091B5028111F2CF089580918A
:1041C000B5028823D9F38091E80080FFF8CF809171
:1041D000E8008E77ECCF2091E4003091E50095E681
:1041E000A9012091EC00822F817020FF06C08091F0
:1041F000E80080FF06C080E008952091E80022FDDD
:104200001AC08091B502882389F0853089F08091A9
:10421000EB0085FD0FC02091E4003091E5004217CE
:104220005307F9F29150E1F684E0089582E0089591
:1042300083E0089581E008950E948B210E949321DC
:10424000E0EEF0E0808181608083E8EDF0E0808145
:104250008F77808319BCA7EDB0E08C918E7F8C9313
:1042600080818F7E80831092B40208950F931F93F4
:10427000CF93DF930E948B210E949321C8EDD0E061
:1042800088818F77888388818068888388818F7D03
:10429000888319BC1092B5021092B1021092B30239
:1042A0001092B20200EE10E0F80180818B7F8083D3
:1042B00088818160888342E060E080E00E949820ED
:1042C000E1EEF0E080818E7F8083E2EEF0E080819D
:1042D00081608083808188608083F80180818E7F07
:1042E0008083888180618883DF91CF911F910F91B6
:1042F0000895E8EDF0E080818F7E8083E7EDF0E0C7
:1043000080818160808384E082BF81E08093B402F9
:104310000E9436210895E8EDF0E080818E7F808351
:104320001092E20008951092DA001092E1000895D0
:104330001F920F920FB60F9211242F933F934F931A
:104340005F936F937F938F939F93AF93BF93EF93FD
:10435000FF938091E10082FF0BC08091E20082FF19
:1043600007C08091E1008B7F8093E1000E94F723DA
:104370008091DA0080FF19C08091D80080FF15C0BD
:104380008091DA008E7F8093DA008091D90080FFDF
:1043900096C080E189BD82E189BD09B400FEFDCFF0
:1043A00081E08093B5020E94D81D8091E10080FFDA
:1043B00019C08091E20080FF15C08091E2008E7FDD
:1043C0008093E2008091E20080618093E20080911E
:1043D000D80080628093D80019BC85E08093B50234
:1043E0000E94EC1D8091E10084FF2BC08091E200CF
:1043F00084FF27C080E189BD82E189BD89B5982FFE
:10440000917080FFFBCF8091D8008F7D8093D80082
:104410008091E1008F7E8093E1008091E2008F7EA9
:104420008093E2008091E20081608093E2008091BD
:10443000B102882309F449C084E08093B5020E9448
:10444000F51D8091E10083FF29C08091E20083FF88
:1044500025C08091E100877F8093E10082E0809316
:10446000B5021092B1028091E1008E7F8093E1004D
:104470008091E2008E7F8093E2008091E200806173
:104480008093E20042E060E080E00E94982080910A
:10449000F00088608093F0000E94E91DFF91EF9189
:1044A000BF91AF919F918F917F916F915F914F914C
:1044B0003F912F910F900FBE0F901F90189519BC30
:1044C0001092B5020E94E61D70CF8091E30087FD37
:1044D00093E09093B502B3CF1F920F920FB60F9255
:1044E00011242F933F934F935F936F937F938F93F9
:1044F0009F93AF93BF93CF93DF93EF93FF93D091AD
:10450000E900DF708091EC00C82FC17080FDC0E829
:104510001092E9008091F000877F8093F0007894FA
:104520000E94B0221092E9008091F0008860809390
:10453000F000CD2BCF70C093E900FF91EF91DF9198
:10454000CF91BF91AF919F918F917F916F915F912B
:104550004F913F912F910F900FBE0F901F90189584
:10456000AAE2B0E0E6EBF2E20C944E2486EB92E095
:104570002091F100FC012193CF01F2E08E3B9F07D7
:10458000B9F70E94151E8091E80083FF1EC180913B
:10459000B6029091B7029A3008F017C1E92FF0E007
:1045A000E75DFA4D0C943924803899F0823809F08F
:1045B0000CC18091BA028F70873008F006C18093D9
:1045C000E9008091EB0085FB882780F91092E900D3
:1045D00006C08091B2029091B302911182609091D5
:1045E000E800977F9093E8008093F1001092F1002B
:1045F0008091E8008E77E5C0882309F4D3C082302B
:1046000009F0E3C08091B8028111D6C08091BA024E
:104610008F702FEF280F263008F0D7C08093E90065
:104620002091EB0020FFC8C0933031F48091EB0063
:1046300080628093EB00C0C09091EB0090619093FA
:10464000EB0021E030E001C0220F8A95EAF72093C9
:10465000EA001092EA008091EB008860EACF8111B5
:10466000B4C01091B8021F778091E3008078812B4D
:104670008093E3008091E800877F8093E8000E94A8
:10468000CC208091E80080FFFCCF8091E30080681F
:104690008093E30082E0111183E08093B50295C01E
:1046A0008058823008F091C08091B8029091B90290
:1046B0008C3D23E09207A1F583E08A838AE2898317
:1046C0004FB7F894DE01139620E03EE051E2E32F6D
:1046D000F0E050935700E49120FF03C0E295EF70A3
:1046E0003F5FEF708E2F90E0EA30C0F0C7968D9359
:1046F0009D932F5F243159F74FBF8091E800877F4A
:104700008093E8006AE270E0CE0101960E94DB1F10
:104710008091E8008B778093E80057C0C096E7CF80
:104720006091BA027091BB02AE014F5F5F4F0E9471
:10473000161FBC01892B09F448C09091E800977FAF
:104740009093E80089819A810E943920E1CF8038D6
:10475000E1F58091E800877F8093E8008091B102C5
:104760008093F10045CF811130C09091B802923012
:1047700060F58091E800877F8093E8009093B10214
:104780000E94CC208091B102882311F084E005C002
:104790008091E30087FDFACF81E08093B5020E940B
:1047A000001E13C08091B802813079F481E093300B
:1047B00009F080E08093B3021092E9008091E80054
:1047C000877F8093E8000E94CC208091E80083FFDF
:1047D0000AC08091E800877F8093E8008091EB0019
:1047E00080628093EB00AA96E3E00C946A2408951B
:1047F000CF938091B5028823A1F0C091E900CF70DA
:104800009091EC00892F817090FD80E8C82B109268
:10481000E9008091E80083FD0E94B022CF70C09330
:10482000E900CF9108950E941C211092B5020895CD
:10483000E8EDF0E08081806180838AE18A95F1F77C
:1048400000C08091D9008170089597FB072E16F45F
:10485000009407D077FD09D00E94762407FC05D08C
:104860003EF4909581959F4F0895709561957F4F87
:104870000895EE0FFF1F0590F491E02D09942F92FB
:104880003F924F925F926F927F928F929F92AF92E0
:10489000BF92CF92DF92EF92FF920F931F93CF932D
:1048A000DF93CDB7DEB7CA1BDB0B0FB6F894DEBFC4
:1048B0000FBECDBF09942A88398848885F846E84EA
:1048C0007D848C849B84AA84B984C884DF80EE8034
:1048D000FD800C811B81AA81B981CE0FD11D0FB63D
:1048E000F894DEBF0FBECDBFED010895AA1BBB1B20
:1048F00051E107C0AA1FBB1FA617B70710F0A61BE0
:10490000B70B881F991F5A95A9F780959095BC0100
:10491000CD010895FB01DC0104C08D910190801947
:1049200021F441505040C8F7881B990B0895FB01B2
:10493000DC0102C001900D9241505040D8F708951B
:10494000F999FECF92BD81BDF89A992780B5089557
:10495000A8E1B0E042E050E00C94E424DC01A40FB4
:10496000B51F4150504048F0CB01840F951F2E9148
:104970000E94BF2441505040D0F70895262FF99946
:10498000FECF92BD81BDF89A019700B4021639F0AE
:104990001FBA20BD0FB6F894FA9AF99A0FBE08957F
:1049A0000396272F0E94BF240E94BE24252F0E9419
:1049B000BF24242F0C94BF240196272F0E94BF24CC
:1049C0000C94BE24DC01CB01FC01F999FECF06C09A
:1049D000F2BDE1BDF89A319600B40D9241505040BD
:1049E000B8F70895F894FFCFB104B10401050105AB
:1049F00066058205E004E0048705F805070607065A
:104A0000D3154716DB15A515A915DF15AD15E3154B
:104A1000EF15B9154016BD15F315C115F7151F167D
:104A2000C515FB152616CB1501160916B115E71588
:104A3000B515EB15CF15051615162F163E169F1535
:104A4000D7154E166E1974195D1968197A198019DF
:104A50008619D422FC22E523FC22E5232F235023B0
:064A6000E523A723B323A8
:104A66002402010000000100000000000000050112
:104A760000000004060000000000002808503C0763
:104A8600148E1DC41D911DBD1DB61D01E200E90059
:104A9600EA00B500B600B700CD008301CC008A015C
:104AA60092019401210223022402250226022702F2
:104AB6002A02B300B4006F0070009F01CB019F0271
:104AC600A002818283E200E900EA00B500B600B7E1
:104AD60000CD008301CC008A0192019401210223BA
:104AE6000224022502260227022A02B300B4006F1E
:104AF6000070009F01CB019F02A002818283946611
:0C4B060097C63435F7313332364C0200CC
:00000001FF
